:020000040800F2
:10000000501200209D010008731C0008931900087D
:10001000711C00085D08000821280008000000008D
:10002000000000000000000000000000F9210008AE
:100030003509000800000000751C0008FB210008BD
:10004000B7010008B7010008B7010008B7010008B0
:10005000B7010008B7010008370900083D0900088A
:10006000B70100084309000849090008B701000862
:10007000B7010008B7010008B7010008B701000880
:10008000B7010008B7010008B7010008B701000870
:10009000B7010008B7010008B7010008B701000860
:1000A000B7010008B7010008FD220008B7010008E9
:1000B000B7010008B7010008B7010008B701000840
:1000C000B7010008B7010008B7010008B701000830
:1000D000B7010008B701000815280008B70100089B
:1000E000B7010008B7010008B7010008B701000810
:1000F000B7010008B7010008B7010008B701000800
:10010000B7010008B7010008B7010008B7010008EF
:10011000012300080D230008B7010008B7010008FB
:10012000B7010008B7010008B7010008B7010008CF
:10013000B7010008B7010008B7010008B7010008BF
:10014000B7010008B7010008B7010008B7010008AF
:10015000B7010008B7010008B7010008B70100089F
:10016000B7010008B7010008B7010008B70100088F
:10017000B7010008B7010008B7010008000000003F
:10018000B7010008B7010008DFF80CD000F0D2FA80
:1001900000480047353100085012002006488047CB
:1001A00006480047FEE7FEE7FEE7FEE7FEE7FEE75C
:1001B000FEE7FEE7FEE7FEE7A5220008890100084A
:1001C0002DE9FE4F804681EA0300C00F0C460090E7
:1001D00021F0004123F00045B8EB0200A94105D20F
:1001E0004046214690461C460B46024623F00040FE
:1001F000104347D0270DC7F30A00C3F30A510290FA
:10020000401A019040286BDAC3F3130040F4801BBE
:100210000098924620B10023D2EB030A63EB0B0B4C
:1002200001985946C0F14002504600F0ECF90646EC
:100230000D4650465946019A00F0F4F910EB0800BB
:100240006141002487EA115284EAE7731A4340D0DF
:10025000009A62B3019A012A4FEA075215DC001B8B
:1002600061EB02014FF0004202EA0752CDE9004281
:10027000001C41F5801132462B4600F0F4F903B022
:10028000BDE8F08F40462146F9E7001B61EB020113
:10029000001C41F5801300185B412018A2F50017DF
:1002A00047EB030140EAD570B6196D4111E06D08C6
:1002B0004FEA360645EAC0754FEA0752001B61EB6C
:1002C0000201001C41F5801149084FEA3000001975
:1002D000514132462B4603B0BDE8F04F00F0B4B9AF
:1002E0000098012240000023D0EB020263EBE07390
:1002F000009821464FEAE074B8EB000061EB04017E
:10030000E9E783F000435BE781F0004158E72DE91E
:10031000FE4F81EA030404F0004421F00041009400
:100320004FF0000B23F0004350EA01045ED052EA84
:1003300003045BD0C3F30A54C1F30A552C44A4F25E
:10034000F3340194A0FB0254C1F3130141F4801172
:10035000C3F3130343F4801301FB024400FB034E79
:10036000840A970A44EA815447EA8357A4FB076842
:1003700002958D0A05FB07854FEA932C04FB0C546C
:100380002705029D4FEA065847EA1637B5EB0805E0
:100390006EEB070C870E920E47EA811742EA831232
:1003A000A7FB0201B6EB0B0164EB00042B0D43EA43
:1003B0000C335E1844EB1C50DA465146E7FB020151
:1003C000C5F313044FEA0B3343EA14534FEA0432E4
:1003D000019C43EA0603A4F10C040294009CCDE9BD
:1003E00000B400F040F903B0BDE8F08F00200146F2
:1003F000F9E72DE9F04D81EA030404F0004B21F008
:10040000004514464FF0000A23F0004150EA05026F
:1004100020D054EA01021DD0C5F30A570246C5F3A5
:100420001303C1F31300C1F30A5640F4801543F4DB
:100430008013A7EB0608101BD64608F2FD3873EBB5
:10044000050002D308F1010801E092185B41B8F100
:10045000000F03DA00200146BDE8F08D00204FF4C4
:100460008011064684460EE0171B73EB050705D383
:10047000121B63EB050306434CEA010C49084FEAE3
:10048000300092185B4150EA0107EDD152EA0300B7
:1004900012D082EA040083EA0501084305D0101B4C
:1004A000AB4106D20122002306E000224FF00043B8
:1004B00002E06FF0010253101AEB06004CEB0851FA
:1004C00010EB0A0041EB0B01BDE8F04D00F0BCB8A9
:1004D0000EB5C10F80EAE0700844CA07002140F25F
:1004E00033438DE80E000A460B4600F0BCF803B01B
:1004F00000BD00F0004230F000400AD0C10D01F50F
:100500006071C0F3160042EA0151C208400711436E
:10051000704700200146704730B5041E71F1000499
:1005200004DB4FF00044404264EB0101141E73F100
:10053000000405DB1C464FF00043524263EB04030A
:100540008B4208BF824230BD30B5041E71F10004F9
:1005500004DB4FF00044404264EB0101141E73F1D0
:10056000000405DB1C464FF00043524263EB0403DA
:10057000994208BF904230BD30B50B46014600207D
:100580002022012409E021FA02F59D4205D303FA55
:1005900002F5491B04FA02F52844151EA2F10102D6
:1005A000F1DC30BD2DE9F05F0546002092469B4608
:1005B00088460646814640241BE028464146474679
:1005C000224600F0C9F853465A46C01A914110D34A
:1005D00011461846224600F016F82D1A67EB01085E
:1005E0004F4622460120002100F00DF817EB0009CC
:1005F0004E41201EA4F10104DFDC484631462A4664
:100600004346BDE8F09F202A04DB203A00FA02F1BD
:10061000002070479140C2F1200320FA03F31943F0
:1006200090407047202A06DBCB17203A41FA02F0AF
:1006300043EAE07306E041FA02F3D040C2F120023F
:10064000914008431946704710B5141E73F1000419
:1006500008DA401C41F1000192185B411A4301D1B4
:1006600020F0010010BD2DE9F04D92469B4611B1DE
:10067000B1FA81F202E0B0FA80F220329046FFF740
:10068000C2FF04460F4640EA0A0041EA0B01534606
:100690005A46084313D0114653EA010019D0C8F155
:1006A0004002504600F058F805460E46504659465E
:1006B0004246FFF7A8FF084305D0012004E020468A
:1006C0003946BDE8F08D0020054346EAE0762C432C
:1006D00037430A986305E40AA0EB08000022FD0AEC
:1006E00044EA47540A3002D500200146E9E70105F3
:1006F00010196941DDE9084500196941BDE8F04D6F
:10070000A2E7C1F30A52C1F3130140F2FF3341F4EF
:1007100080119A4202DA00200146704740F23343CA
:100720009A42A2F2334202DC524200F015B8FFF7BF
:100730006ABF0000064C074D06E0E06840F0010388
:1007400094E8070098471034AC42F6D3FFF720FD39
:10075000D4320008F4320008202A04DB203A21FABF
:1007600002F00021704721FA02F3D040C2F12002CA
:10077000914008431946704700B587B000210F48E3
:10078000026842F001020260006800F0010001907E
:10079000102002900A48039001200490069102A9BB
:1007A000084800F00FF9002211460A2000F0A2FAD2
:1007B0000A2000F093FA07B000BD00003038024074
:1007C000000021100000024030B587B000240D4821
:1007D000016841F480710160006800F4807001904C
:1007E000094D00224FF48061284600F000FA2915D7
:1007F000029101210391059402A9284600F0E2F834
:1008000007B030BD303802400020024000B587B04C
:1008100000210F48026842F002020260006800F006
:1008200002000190082002900A48039001200490E1
:10083000069102A9084800F0C5F8002211460920D7
:1008400000F058FA092000F049FA07B000BD000096
:10085000303802400000211000040240FEE7000092
:100860002F49DFF8C0C08A78531CDBB28B700CF8BC
:1008700002009CF800000022A62801D08A70704770
:100880001A2BFCD39CF80100A62801D08A7070476F
:10089000254890F873300B71436F4B64B0F8783093
:1008A000A1F84830D0F87A30C1F83E30B0F87E3048
:1008B000A1F84230D0F880308B63B0F884308B8759
:1008C000D0F886304B6390F88A00C870174BDFED84
:1008D000180AB3F90000404200EE100AB8EEC00A50
:1008E00020EE200A81ED0C0AB3F9020000EE100A96
:1008F000B8EEC00A20EE200A81ED0B0AB3F904001D
:10090000404200EE100AB8EEC00A20EE200A81ED47
:100910000A0A81ED070A81ED080A8A707047000013
:10092000080000200D0200209C0100204C00002047
:100930000AD7233C7047012000F038B8022000F0AD
:1009400035B8082000F032B8102000F02FB890F829
:100950003510022903D0802141650120704705210F
:1009600080F835100068016821F001010160002065
:1009700070470000012803D109490A68521C0A6027
:10098000022803D107490A68521C0A60012206495D
:10099000082800D14A61102800D18A617047000000
:1009A00070000020740000200800002010B50449E9
:1009B0000A68024202D00860FFF7DCFF10BD0000A9
:1009C000143C01402DE9F84F0022DFF80082DFF8E7
:1009D0000092DFF800A24FF0030E0F27012303FA65
:1009E00002F50B682B40AB427DD1D1F804C0BCF1BD
:1009F000020F02D0BCF1120F12D14FEAD20C00EB61
:100A00008C0CDCF820605407E40E07FA04FB26EA9D
:100A10000B06D1F810B00BFA04F43443CCF82040A4
:100A200006684FEA420C0EFA0CF4A64391F804B0A3
:100A30000BF0030B0BFA0CFB4BEA060606604E6844
:100A4000012E05D0022E03D0112E01D0122E11D16D
:100A50008668A643D1F80CB00BFA0CFB4BEA0606ED
:100A60008660466826EA05050E79C6F300169640AC
:100A700035434560C56825EA04048D6805FA0CFC19
:100A80004CEA040CC0F80CC0D1F804C01CF0805F24
:100A90007DD0D8F800C04CF4804CC8F800C0D8F81D
:100AA00000C00CF4804CCDF800C022F0030C0CF117
:100AB000804404F59834D4F808C895072D0F07FA38
:100AC00005F62CEA0606A0F1804CBCF5003C64D08B
:100AD000A0F1804CBCF5013C62D0A0F1804CBCF58B
:100AE000023C60D000E052E0A0F1804CBCF5033C39
:100AF0005CD0A0F1804CBCF5043C5AD0A0F1804CF5
:100B0000BCF5053C58D0A0F1804CBCF5063C56D055
:100B1000A0F1804CBCF5073C54D04FF0080C0CFA07
:100B200005FC4CEA060CC4F808C8D9F800C02CEA49
:100B3000030C4C6814F4803F01D04CEA030CC9F854
:100B400000C0254CD4F800C02CEA030C4D6815F405
:100B5000003F01D04CEA030CC4F800C0DAF800C032
:100B60002CEA030C4C6814F4801F01D04CEA030CEF
:100B7000CAF800C0194CD4F800C02CEA030C4D6828
:100B800015F4001F01D04CEA030CC4F800C0521C3D
:100B9000102AFFF423AFBDE8F88F4FF0000CBEE73A
:100BA0004FF0010CBBE74FF0020CB8E74FF0030C1D
:100BB000B5E74FF0040CB2E74FF0050CAFE74FF08C
:100BC000060CACE74FF0070CA9E7000044380240E0
:100BD000003C0140083C0140043C01400C3C014009
:100BE0000069084201D00120704700207047002AA8
:100BF00001D0816170470904816170470148006834
:100C0000704700000000002002480168491C016094
:100C1000704700000000002010B50B48016841F447
:100C200000710160016841F480610160016841F474
:100C300080710160032000F091F8002000F006F8B8
:100C400000F018F8002010BD003C024010B504462A
:100C500007484FF47A720068B0FBF2F000F036FCFF
:100C600000222146501E00F045F8002010BD000073
:100C70000400002010B5032000F070F80022114697
:100C80006FF00B0000F036F8002211466FF00A00FA
:100C900000F030F8002211466FF0090000F02AF849
:100CA00000221146501F00F025F800221146101FA7
:100CB00000F020F800221146901E00F01BF80022E0
:100CC0001146501E00F016F800221146052000F0D3
:100CD00011F8BDE810400520AFF3008000F01F01BF
:100CE000012202FA01F14009800000F1E020C0F881
:100CF0000011704710B4184B1B68C3F30223C3F1F3
:100D0000070CBCF1040F01D94FF0040C1C1D072C7B
:100D100001D2002300E0DB1E012404FA0CFCACF13C
:100D2000010C0CEA0101994004FA03F35B1E1A401E
:100D30001143002808DA00F00F0000F1E02009015B
:100D400080F8141D10BC704700F1E020090180F804
:100D5000001410BC704700000CED00E000F007002C
:100D6000064A11684FF6FF03194041EA002040F09F
:100D7000FD7040F080601060704700000CED00E0F6
:100D80002DE9F05F04460E46DFF8D091D9F8000057
:100D9000F7B200F00F00B0420AD289F80070D9F81B
:100DA000000000F00F00B04202D00120BDE8F09F2B
:100DB0002078DFF8AC8110F0020F07D0D8F80000DF
:100DC000A16820F0F0000843C8F80000207810F077
:100DD000010F51D060686349012808D002280DD066
:100DE00003280BD0096811F0020F2ED00AE0096821
:100DF00011F4003F06D10120BDE8F09F096811F011
:100E0000007F1FD0D8F8001021F003010843C8F874
:100E10000000FFF7F3FE0546606841F2883A0128BA
:100E200016D0022829D003283CD0D8F8000010F0B2
:100E30000C0F51D0FFF7E2FE401B504547D903206D
:100E4000BDE8F09F0120BDE8F09F0120BDE8F09FC4
:100E5000D8F8000000F00C0004283DD0FFF7CEFECB
:100E6000401B504502D90320BDE8F09FD8F8000090
:100E700000F00C000428F1D12EE0D8F8000000F0BA
:100E80000C00082828D0FFF7B9FE401B504502D9B6
:100E90000320BDE8F09FD8F8000000F00C000828FF
:100EA000F1D119E0D8F800004FF00C0B3BEA00003C
:100EB00012D0FFF7A3FE401B504502D90320BDE826
:100EC000F09FD8F800003BEA0000F2D104E0D8F827
:100ED000000010F00C0FADD1D9F8000000F00F00A9
:100EE000B0420AD989F80070D9F8000000F00F006C
:100EF000B04202D00120BDE8F09F207810F0040F2E
:100F000007D0D8F80000E16820F4E0500843C8F8A2
:100F10000000207810F0080F08D0D8F800002169F0
:100F200020F4604040EAC100C8F8000000F058F822
:100F3000D8F80010F02292FAA2F201F0F001B2FA11
:100F400082F2D140084A515CC8400849086000203C
:100F5000FFF77CFE0020BDE8F09F0000003C02404F
:100F60000838024000380240BC320008040000206B
:100F700001490120C86470470000474201480068E9
:100F8000704700000400002000B5FFF7F7FF074995
:100F900009684FF4E05292FAA2F201F4E051B2FA79
:100FA00082F2D140024A515CC84000BD083802407C
:100FB000CC32000800B5FFF7E1FF074909684FF49C
:100FC000604292FAA2F201F46041B2FA82F2D14098
:100FD000024A515CC84000BD08380240CC320008CB
:100FE00010B41F48006810F00C011E481BD04FEAD7
:100FF000600C042916D0082915D11B4A116801F08C
:101000003F01136813F4800F47F6C0730DD0BCFB8B
:10101000F1F01168194093FAA3F3B3FA83F3D940BE
:1010200048430CE0604610BC7047B0FBF1F011681B
:10103000194093FAA3F3B3FA83F3D94048431168F4
:101040004FF4403292FAA2F201F44031B2FA82F245
:10105000D140491C4900B0FBF1F010BC70470000C2
:10106000083802400024F400043802402DE9F84F0B
:101070000446DFF81C842078A8F1040710F0010F63
:10108000A7F1040560D0D8F8000000F00C00042897
:1010900009D0D8F8000000F00C0008280DD13868FD
:1010A00010F4800F09D0286810F4003F4CD060681D
:1010B000002849D10120BDE8F88F6068B0F5803F75
:1010C00014D0B0F5A02F16D0286820F48030286006
:1010D000286820F480202860606810B3FFF78EFD38
:1010E0000646286810F4003F0ED02DE0286840F432
:1010F00080302860F0E7286840F480202860286865
:1011000040F480302860E7E7FFF778FD801B642813
:1011100002D90320BDE8F88F286810F4003FF3D00F
:1011200012E0FFF76BFD0646286810F4003F0BD075
:10113000FFF764FD801B642802D90320BDE8F88F07
:10114000286810F4003FF3D12078DFF8489310F0BE
:10115000020F4FF0000663D0D8F800004FF0F80BF4
:1011600010F00C0F16D0D8F8000000F00C00082882
:1011700003D1386810F4800F0CD0E068C8B30120A8
:10118000C9F80000FFF73AFD8246286810F0020F08
:1011900016D022E0286810F0020F05D0E068012880
:1011A00002D00120BDE8F88F28689BFAABF22169D4
:1011B000B2FA82F220F0F8009140084328602FE054
:1011C000FFF71CFDA0EB0A00022802D90320BDE8AE
:1011D000F88F286810F0020FF2D028689BFAABF263
:1011E0002169B2FA82F220F0F800914008432860A9
:1011F00016E0FFE7C9F80060FFF700FD82462868A7
:1012000010F0020F0CD0FFF7F9FCA0EB0A00022847
:1012100002D90320BDE8F88F286810F0020FF2D140
:10122000207810F0080F34D09B48DFF870B2616965
:10123000C1B101210160FFF7E1FC8246DBF800004B
:1012400010F0020F25D1FFF7D9FCA0EB0A0002280D
:1012500002D90320BDE8F88FDBF8000010F0020F80
:10126000F1D016E00660FFF7C9FC8246DBF800000B
:1012700010F0020F0DD0FFF7C1FCA0EB0A0002280E
:1012800002D90320BDE8F88FDBF8000010F0020F50
:10129000F1D1207810F0040F43D08148016841F06B
:1012A00080510160006800F080500090DFF8F4B1D8
:1012B000DBF8000040F48070CBF80000FFF79EFCE4
:1012C0008246DBF8000010F4807F0DD1FFF796FC1A
:1012D000A0EB0A00022802D90320BDE8F88FDBF852
:1012E000000010F4807FF1D0A068DFF8BCB10128C5
:1012F00018D005281DD0DBF8000020F00100CBF845
:101300000000DBF8000020F00400CBF80000A0682B
:1013100068B3FFF773FC8246DBF8000010F0020FA1
:1013200014D03CE0DBF8000040F00100CBF80000F6
:10133000EDE7DBF8000040F00400CBF80000DBF83C
:10134000000040F00100CBF80000E0E7FFF756FC9A
:10135000A0EB0A0141F28830814202D90320BDE8A6
:10136000F88FDBF8000010F0020FEFD017E0FFF766
:1013700045FC8246DBF8000010F0020F0FD0FFF7AB
:101380003DFCA0EB0A0141F28830814202D90320E2
:10139000BDE8F88FDBF8000010F0020FEFD1A06974
:1013A000F0B3D8F8001001F00C0108296CD0022825
:1013B00010D0C9F86060FFF721FC0446286810F0DF
:1013C000007F5ED0FFF71AFC001B022855D90320CE
:1013D000BDE8F88FC9F86060FFF710FC0646286882
:1013E00010F0007F0BD0FFF709FC801B022802D908
:1013F0000320BDE8F88F286810F0007FF3D1216A40
:10140000E0694FF0FF3340EA010247F6C07191FAFC
:10141000A1F1606AB1FA81F100FA01F1A06A00E07D
:101420002FE003EB50004FF4403393FAA3F3B3FAE9
:1014300083F39840084310434FF0706292FAA2F28F
:10144000E16AB2FA82F29140084338600120C9F89B
:101450006000FFF7D3FB0446286810F0007F10D12E
:10146000FFF7CCFB001B022802D90320BDE8F88F50
:10147000286810F0007FF3D003E0286810F0007FA8
:10148000A0D10020BDE8F88F0120BDE8F88F000052
:101490000838024000004742800E4742743802403C
:1014A0004038024000700040703802404FF0E021A8
:1014B000042804D0086920F0040008617047086916
:1014C00040F004000861704770470000401EB0F112
:1014D000807F01D3012070474FF0E0214861044A2A
:1014E000F0201070002088610720086100207047FC
:1014F00023ED00E010B5FFF7E7FF10BD70470000D7
:1015000010B5044622681068D168526900F00F03D4
:10151000002B0AD110F0200F07D011F0200F04D0BB
:101520002046BDE8104000F01ABF002B6BD002F03F
:10153000010301F4907C53EA0C0364D010F0010F16
:1015400006D011F4807F03D0E36B43F00103E36323
:1015500010F0040F06D012F0010F03D0E36B43F03C
:101560000203E36310F0020F06D012F0010F03D064
:10157000E36B43F00403E36310F0080F06D012F0AE
:10158000010F03D0E26B42F00802E263E26B002A33
:101590002ED010F0200F05D011F0200F02D02046E1
:1015A00000F0DDFE20684069C0F38010E16B11F0AF
:1015B000080F00D108B3204600F0B6FE206841694C
:1015C00011F0400F15D0416921F040014161606B7D
:1015D00058B118490165606BFFF7B9F9002807D0C9
:1015E000606B016DBDE8104008472046FFF786FF9D
:1015F00010BD2046FFF782FF10BD2046FFF77EFF9B
:101600000020E06310BD10F0800F07D011F0800FB4
:1016100004D02046BDE8104001F08CB810F0400F17
:10162000F0D011F0400FEDD02046BDE8104000F0A2
:1016300089BE00001923000870B50446002C04D0B0
:1016400094F83900002510B106E0012070BD84F83F
:101650003850204600F022F8242084F83900206811
:10166000C16821F40051C160204600F0C1FE20682D
:10167000016921F4904101612068416921F02A014A
:1016800041612068C16841F40051C160E5632020D8
:1016900084F8390084F83A00002070BD2DE9F04F3D
:1016A00087B00446474D206802260127A0F18041FB
:1016B0004FF00809B1F598411AD1286840F00400AC
:1016C0002860286800F00400019028150290039615
:1016D00004970596CDF81890DFF8EC8002A94046F3
:1016E000FFF770F9E814029002A94046FFF76AF983
:1016F00036484FF0070A4FF00308844213D1286898
:1017000040F002002860286800F002000190C0202C
:10171000029003960497CDF81480CDF818A002A982
:101720002B48FFF74FF92068DFF8A8B0A0F18041FF
:10173000B1F5A04122D1286840F004002860286853
:1017400000F004000190286840F008002860286834
:1017500000F0080001904FF4805002900396049727
:10176000CDF81480CDF8189002A91748FFF72AF990
:101770000420029002A95846FFF724F92068A0F13E
:101780008041B1F5884119D1286840F008002860EF
:10179000286800F00800019020200290039604972A
:1017A000CDF81480CDF818A002A95846FFF70AF921
:1017B0004021029102A95846FFF704F907B0BDE89D
:1017C000F08F000030380240000802407C0000200A
:1017D00000040240000C024090F83A30202B01D067
:1017E00002207047D1B1CAB190F83830012B17D020
:1017F00081628285C2850021C163222280F83A205D
:1018000080F8381001684A6942F001024A610068B4
:10181000C16841F49071C160002070470120704799
:101820000220704710B500681A49A0F18042B2F555
:10183000A04213D0A0F18042B2F598421ED0A0F190
:101840008042B2F5884223D1C87900F0A5F8BDE8FE
:101850001040012210491148FFF7BEBF887900F0FF
:101860002FFA002301220E490E4800F023F8BDE8AC
:10187000104001220A490C48FFF7AEBF4879FEF735
:10188000EFFFBDE81040012208490948FFF7A4BF57
:1018900010BD0000080000200F0000203C010020C7
:1018A0000E0000207C000020FC0000200D00002025
:1018B000BC0000202DE9F84304460D4691461E4623
:1018C00094F83900202802D00220BDE8F8834DB3F7
:1018D000B9F1000F26D094F83800012825D0012056
:1018E00084F838000027E763212084F83900FFF7E7
:1018F00085F98046A4F82490A4F82690E08CA0B343
:10190000E08C401EE084A068B0F5805F10D04346B4
:10191000002280212046009600F03FFFF0B1032016
:10192000BDE8F8830120BDE8F8830220BDE8F88314
:101930004346002280212046009600F02EFF10B181
:101940000320BDE8F88328882168C0F308004860B8
:10195000206908B16D1C05E0AD1C03E0216815F895
:10196000010B4860E08C0028CAD143460022402188
:101970002046009600F011FF10B10320BDE8F88367
:10198000202084F8390084F838700020BDE8F883FE
:101990007047FEE70000000070B5254C254B6178CC
:1019A0004A1CD2B26270585418780025FF2801D022
:1019B000657070BD042AFCD31F48B0F86800208110
:1019C0001E489FED1F1A90F9011090F9000000EEDB
:1019D000101A00EE900AB8EEC00AF8EEE00A00EE27
:1019E000810ADFED180A20EE200A10EE100AFEF739
:1019F00080FD41EC100B84ED140B9FED131B51EC9B
:101A0000100B53EC112BFEF787FD0DD89FED100B3B
:101A100053EC102B94ED140B51EC100BFEF794FDCE
:101A200002D20120206100E02561657070BD0000D8
:101A300008000020030200209C010020100000206C
:101A4000000080436F12833A000000000000E03F76
:101A50000000000000000000F0B587B023480168D6
:101A600041F080010160016801F08001019101688D
:101A700041F010010160016801F01001019101685D
:101A800041F010010160006800F010000190184F53
:101A900000224FF400713846FFF7A9F8154E0022D6
:101AA00020213046FFF7A3F8002240213046FFF7FF
:101AB0009EF870150290012403940225059502A951
:101AC0003846FEF77FFF202102910394059502A975
:101AD0003046FEF777FF402002900394059502A957
:101AE0003046FEF76FFF07B0F0BD0000303802400F
:101AF000001C02400010024008B500210D48026899
:101B000042F400220260006800F4002000900B48BC
:101B1000094A02604FF4164242608160C16001616F
:101B20000C2242618161C161FFF786FDBDE808407A
:101B300000F006B840380240004C0040BC000020D5
:101B400010B5002211463420FFF7D4F8BDE810404C
:101B50003420FFF7C3B810B5002211462620FFF746
:101B6000C9F8BDE810402620FFF7B8B810B500222C
:101B700011463520FFF7BEF8BDE810403520FFF7CD
:101B8000ADB810B5002201212520FFF7B3F8BDE85C
:101B900010402520FFF7A2B808B500210D480268C3
:101BA00042F400320260006800F4003000900B48FC
:101BB000094A02604FF4165242608160C1600161BF
:101BC0000C2242618161C161FFF736FDBDE808402A
:101BD000FFF7C1BF40380240004400403C010020F4
:101BE00008B500210D48026842F4801202600068C6
:101BF00000F4801000900B48094A02604FF4E13273
:101C000042608160C16001610C2242618161C161F9
:101C1000FFF712FDBDE80840FFF7A8BF40380240BB
:101C200000500040FC00002008B500210D4802686B
:101C300042F010020260006800F0100000900B48B3
:101C4000094A02604FF4E13242608160C160016183
:101C50000C2242618161C161FFF7EEFCBDE80840E2
:101C6000FFF78FBF44380240001001407C00002085
:101C7000FEE770477047000010B586B00D48016858
:101C800041F008010160006800F0080000900A4C73
:101C9000012211032046FEF7AAFFA1140191112190
:101CA00002910221049101A92046FEF78BFE06B0A5
:101CB00010BD000030380240000C0240000000005F
:101CC000F0B52DED108B81B0FD4FFE4D39784A1CDB
:101CD000D2B23A70685428780026242804D03E7086
:101CE00001B0BDEC108BF0BD332AF9D395F832006A
:101CF000342804D03E7001B0BDEC108BF0BD9FEDD8
:101D0000F28BB0EE48BAF0EE68BAB0EE48AAF0EE48
:101D100068AAB0EE489AF0EE689A00249FEDECFBBA
:101D20009FEDEDEB2819407C009034B1012C14D0CC
:101D3000022C1ED0032C2CD03CE09DF90000303842
:101D4000FEF7C6FB53EC1F2BFEF7E1FA53EC1B2BFF
:101D5000FEF736FA41EC1B0B2CE09DF90000303801
:101D6000FEF7B6FB53EC1B2BFEF72AFA41EC1B0BDC
:101D700020E09DF900003038FEF7AAFB53EC1E2B43
:101D8000FEF7C5FA53EC182BFEF71AFA41EC180BC4
:101D900010E09DF900003038FEF79AFB9FEDD01B54
:101DA00053EC112BFEF7B3FA53EC182BFEF708FA9D
:101DB00041EC180B641C042CB4DB00249FEDCADB3F
:101DC0002819807D009074B1012C1ED0022C2CD0DB
:101DD000032C3CD0042C4CD0052C5CD0062C6ED0AF
:101DE000072C7ED08EE09DF900003038FEF770FBA6
:101DF0009FEDBF1B53EC112BFEF789FA53EC182B08
:101E0000FEF7DEF941EC180B7CE09DF9000030385C
:101E1000FEF75EFB53EC1D2BFEF779FA53EC182B03
:101E2000FEF7CEF941EC180B6CE09DF9000030385C
:101E3000FEF74EFB9FEDB01B53EC112BFEF767FA3C
:101E400053EC182BFEF7BCF941EC180B5AE09DF946
:101E500000003038FEF73CFB9FEDA91B53EC112B23
:101E6000FEF755FA53EC182BFEF7AAF941EC180BC4
:101E700048E09DF900003038FEF72AFB9FEDA21BD9
:101E800053EC112BFEF743FA53EC182BFEF798F99D
:101E900041EC180B36E09DF900003038FEF718FBD6
:101EA0009FED9B1B53EC112BFEF731FA53EC182BD3
:101EB000FEF786F941EC180B24E000E011E09DF9F3
:101EC00000003038FEF704FB9FED931B53EC112B01
:101ED000FEF71DFA53EC182BFEF772F941EC180BC4
:101EE00010E09DF900003038FEF7F2FA9FED8C1BF0
:101EF00053EC112BFEF70BFA53EC182BFEF760F99D
:101F000041EC180B641C082CFFF65AAF00249FED1F
:101F100086CB9FED73FB281990F82100009044B107
:101F2000012C16D0022C26D0032C30D0042C3ED00D
:101F30004CE09DF900003038FEF7CAFA53EC1C2B38
:101F4000FEF7E5F953EC1A2BFEF73AF941EC1A0BC0
:101F50003CE09DF900003038FEF7BAFA9FED5C1BBB
:101F600053EC112BFEF7D3F953EC1A2BFEF728F99B
:101F700041EC1A0B2AE09DF900003038FEF7A8FA70
:101F800053EC1A2BFEF71CF941EC1A0B1EE09DF9DD
:101F900000003038FEF79CFA53EC1E2BFEF7B7F921
:101FA00053EC192BFEF70CF941EC190B0EE09DF9DF
:101FB00000003038FEF78CFA53EC1F2BFEF7A7F920
:101FC00053EC192BFEF7FCF841EC190B641C052CA3
:101FD000A1DB00249FED4EDB9FED4FEB9FED50FB0F
:101FE000281990F82700009074B1012C1ED0022C03
:101FF0002ED0032C3ED0042C4ED0052C5CD0062CC9
:102000005BD0072C5AD0C5E09DF900003038FEF7B0
:102010005FFA9FED371B53EC112BFEF778F953EC69
:10202000192BFEF7CDF841EC190BB3E09DF9000038
:102030003038FEF74DFA9FED2C1B53EC112BFEF7B9
:1020400066F953EC192BFEF7BBF841EC190BA1E034
:102050009DF900003038FEF73BFA9FED271B53EC4B
:10206000112BFEF754F953EC192BFEF7A9F841ECAC
:10207000190B8FE09DF900003038FEF729FA9FED2B
:10208000201B53EC112BFEF742F953EC192BFEF7F2
:1020900097F841EC190B7DE09DF900003038FEF710
:1020A00017FA9FED191B53EC112BFEF730F953EC87
:1020B000192BFEF785F83BE03DE04CE05BE00000CB
:1020C00008000020CC0100200000000000000000FB
:1020D0000000000000002440000000A09999B93FD2
:1020E00000000040E17A843F000000E0E2361A3F41
:1020F000000000E04D62503F00000080B5F8E43E73
:10210000000000A0F7C6B03E000000A0F2D77A3E63
:10211000000000E08E79453E000000E00B2E113EED
:10212000000000E0DF7CDB3D0000000000005940C3
:1021300041EC190B2EE09DF900003038FEF7C8F98C
:1021400053EC1D2BFEF7E3F853EC192BFEF738F890
:1021500041EC190B1EE09DF900003038FEF7B8F98C
:1021600053EC1E2BFEF7D3F853EC192BFEF728F88F
:1021700041EC190B0EE09DF900003138FEF7A8F98B
:1021800053EC1F2BFEF7C3F853EC192BFEF718F88E
:1021900041EC190B641C082CFFF622AF53EC1C2BEE
:1021A00051EC180BFEF7B3F89FED118B53EC182B85
:1021B000FEF71FF953EC1B2BFEF702F804460D4601
:1021C00053EC1C2B51EC190BFEF7A1F853EC182B18
:1021D000FEF70FF953EC1A2BFDF7F2FFFD65BC6516
:1021E000796638663E7001B0BDEC108BF0BD000022
:1021F0000000000000004E40704710B5FEF704FDDF
:10220000BDE81040FFF776B930B593B000252348FC
:10221000016841F080510160006800F0805000903A
:102220001F48016841F480410160006800F480406B
:102230000090012006900004079002240C94800175
:102240000D9008200E904FF4A8700F901094072066
:10225000119006A8FEF70AFF0F2001900294039543
:102260004FF4A0500490E0020590052101A8FEF76C
:1022700087FDFEF77DFEFEF781FE4FF47A71B0FB1D
:10228000F1F0FFF723F90420FFF710F900221146BF
:10229000501EFEF72FFD13B030BD00004038024045
:1022A000007000400F48016841F4700101600E4861
:1022B000016841F0010101600C4A002111600268CF
:1022C00022F4102222F080720260031D084A1A6074
:1022D000026822F48022026006480160064958061E
:1022E0000860704788ED00E000380240083802407E
:1022F000103000240C38024008ED00E07047000068
:102300000148FFF7FDB80000BC0000200148FFF7BE
:10231000F7B80000FC00002010B5806B0021C185DB
:10232000C184FFF7EBF810BD0168CA6822F490720F
:10233000CA6001684A6922F001024A61202180F8DE
:102340003A10704710B50168CA6822F04002CA60AE
:10235000202180F83910FFF71BFB002010BD10B5BD
:1023600090F83A10222901D0022010BD8168B1F501
:10237000805F11D0016919B30168496801F07F02DB
:10238000816A4B1C83620A70C18D491E0904090CC5
:10239000C1851CD0002010BD816A02693AB1026873
:1023A0005268D2B20A80816A491C8162ECE70268F5
:1023B0005268C2F308020A80816A891C8162E3E7DD
:1023C00001684A68816A4B1C83620A70DCE7016815
:1023D000CA6822F49072CA6001684A6922F0010258
:1023E0004A61202180F83A10FFF71CFA002010BD46
:1023F0002DE9F04104462068016921F44051E2686A
:10240000114301612068C16821F4037121F4144172
:102410002369A268D4F81CC01A43636943EA0C0319
:102420001A431143C1602068416921F44071A269D7
:1024300011434161E069BC4ABC49BD4D3226B0F54B
:10244000004F5ED02068884202D0904240F0128156
:10245000FEF7B0FD00EBC00101EB001061688900E0
:10246000B0FBF1F7FEF7A6FD00EBC00101EB001099
:1024700061688900B0FBF1F0A5FB001040096FF026
:102480001801484307EB800006EB0010A5FB001085
:10249000400900F0F007FEF78DFD00EBC00101EBF5
:1024A000001061688900B0FBF1F0A5FB0010400945
:1024B00007EB0017FEF77EFD00EBC00101EB0010FB
:1024C00061688900B0FBF1F8FEF774FD00EBC00114
:1024D00001EB001061688900B0FBF1F0A5FB001072
:1024E00040096FF01801484308EB800006EB00102C
:1024F000A5FB00102168C0F3431038448860BDE894
:10250000F0812068884201D0904259D1FEF752FDF7
:1025100000EBC00101EB001061684900B0FBF1F075
:10252000A5FB001040090701FEF744FD00EBC001C8
:1025300001EB001061684900B0FBF1F8FEF73AFDCD
:1025400000EBC00101EB001061684900B0FBF1F045
:10255000A5FB001040096FF01801484308EB80000C
:1025600006EBC000A5FB0010400900F0F80007EBE7
:102570004007FEF71FFD00EBC00101EB0010616892
:102580004900B0FBF1F8FEF715FD00EBC00101EBCF
:10259000001061684900B0FBF1F0A5FB0010400994
:1025A0006FF01801484308EB800006EBC000A5FB64
:1025B00000102168C0F3421038448860BDE8F08103
:1025C000FEF7E2FC00EBC00101EB0010616849007E
:1025D000B0FBF1F0A5FB001040090701FEF7D4FCA9
:1025E00000EBC00101EB001061684900B0FBF1F89D
:1025F000FEF7CAFC00EBC00101EB00106168490066
:10260000B0FBF1F0A5FB001040096FF01801484342
:1026100008EB800006EBC000A5FB0010400900F0AD
:10262000F80007EB4007FEF7AFFC00EBC00101EB41
:10263000001061684900B0FBF1F8FEF7A5FC00EB63
:10264000C00101EB001061684900B0FBF1F0A5FB8F
:10265000001040096FF01801484308EB800006EBBA
:10266000C000A5FB00102168C0F342103844886008
:10267000BDE8F081FEF788FC00EBC00101EB001023
:1026800061688900B0FBF1F7FEF77EFC00EBC0014A
:1026900001EB001061688900B0FBF1F0A5FB0010B0
:1026A00040096FF01801484307EB800006EB00106B
:1026B000A5FB0010400900F0F007FEF765FC00EBF9
:1026C000C00101EB001061688900B0FBF1F0A5FBCF
:1026D0000010400907EB0017FEF756FC00EBC001A5
:1026E00001EB001061688900B0FBF1F8FEF74CFCCB
:1026F00000EBC00101EB001061688900B0FBF1F054
:10270000A5FB001040096FF01801484308EB80005A
:1027100006EB0010A5FB00102168C0F343103844FD
:102720008860BDE8F0810000001401400010014005
:102730001F85EB5190F83910212901D002207047F4
:102740008168B1F5805F0CD0016A4A1C02620268A0
:1027500009785160C18C491E0904090CC18410D04C
:1027600019E0016A02680988C1F308015160016932
:1027700019B1016A491C0162ECE7016A891C016216
:10278000E8E70168CA6822F08002CA600068C16890
:1027900041F04001C160002070472DE9F04104463E
:1027A000069D884617461E462068006838EA0000E5
:1027B00020D00020B84227D1B5F1FF3F1CD025B171
:1027C000FEF71CFA801BA84216D92068C16821F4C4
:1027D000D071C1602068416921F001014161202070
:1027E00084F8390084F83A00002084F83800032087
:1027F000BDE8F0810120DDE72068006838EA0000CC
:1028000005D00020B842D7D00020BDE8F0810120DB
:10281000F8E700000148FEF773BE00003C0100200D
:10282000FEE700000FB4054B10B503A9044A029857
:1028300000F0DAF810BC5DF814FB00001931000854
:102840007800002002E008C8121F08C1002AFAD14F
:1028500070477047002001E001C1121F002AFBD120
:10286000704700002DE9FF5F82B00021DDE90430F0
:10287000020DDDF840B0034318D044F61050A2F228
:10288000FF3242431514119801281FD0A5EB0B000D
:10289000401C5FEA000A4FF000064E4FDFF8389107
:1028A000B046504615D5CAF1000413E01198012432
:1028B0004AA3012801D16FEA0B010298119AC0E9DD
:1028C0000031C0E9024206B0BDE8F09FCBF1000044
:1028D000DFE704460021404A491842EB0450CDE9A5
:1028E000001012E0E00707D032463B46404649461A
:1028F000FDF70DFD8046894632463B461046194697
:10290000FDF705FD06460F466410002CEAD1DDE90F
:102910000401DDE90023BAF1000F06DAFDF7F7FC48
:1029200042464B46FDF7F3FC05E0FDF762FD4246EB
:102930004B46FDF75EFD04460E460022284BFDF790
:1029400003FE03D84FF0FF30014607E00022254B7D
:1029500020463146FDF734FCFDF7D3FE102409E094
:10296000002C0ADB0A220023FDF71CFE039B3032F9
:102970001A55641E50EA0102F2D1641C039AC4F194
:1029800011031444119A012A03D0012208430DD1E6
:102990000AE0084304D000204FF0110B119072E7B9
:1029A000A3EB0B056D1E0DE05B4504DD4FF000024F
:1029B00005F1010504E003DA4FF00002A5F101057D
:1029C000002AECD002981199C0E90231C0E9004513
:1029D00079E70000000014400000F03F30000000E4
:1029E0000000F0430000E03F2DE9FF4F95B09B460B
:1029F0008946064600250FE2252877D10024274680
:102A0000F84A0121059400E0044316F8013F203BF9
:102A100001FA03F01042F7D130782A2811D06FF074
:102A20002F033078A0F13002092A16D8059A44F015
:102A3000020402EB820203EB42021044761C059072
:102A4000EFE759F8042B0592002A03DA504244F4C8
:102A50000054059044F00204761C30782E2816D1DC
:102A600016F8010F44F004042A280DD06FF02F024D
:102A70003078A0F13003092B09D807EB870302EB6C
:102A80004303C718761CF3E759F8047B761C3078AB
:102A90006C280FD006DC4C2817D068280DD06A2887
:102AA00014D104E0742810D07A280FD10DE044F43A
:102AB00000140AE044F4801401E044F440147278F5
:102AC000824202D104F58014761C761C3078662888
:102AD0000BD013DC582877D009DC002875D04528A6
:102AE000F6D04628F4D047281AD19DE118E0632893
:102AF00035D0642879D0652812D195E1702873D03B
:102B000008DC6728F1D069286FD06E280DD06F28B7
:102B100006D1B5E073282CD0752875D0782874D0EC
:102B20005A46179990476D1C75E1C4F3025002286C
:102B300009D003280DD0D9F8001004280DD00D605D
:102B400009F1040967E1D9F80010EA17C1E9005258
:102B5000F6E7D9F800100D80F2E70D70F0E719F8EC
:102B6000041B8DF8001000208DF80100EA460120BA
:102B700003E059F804AB4FF0FF3061074FF000015C
:102B800002D40DE008F101018846B9420FDA804510
:102B9000F8DB1AF808100029F4D108E008F1010167
:102BA00088468142FADB1AF808100029F6D1059808
:102BB0005B46A0EB080721463846179A00F094FAC6
:102BC000284400EB080507E04DE029E10DE01AF884
:102BD000010B5A4617999047B8F10108F7D25B46A6
:102BE00021463846179A13E142E00A220092C4F3C4
:102BF00002524FF0000A022A08D059F804CB032AE7
:102C00004FEAEC710AD00DE029E02AE009F1070152
:102C100021F00702F2E802C1914609E00FFA8CFCAC
:102C20004FEAEC71042A03D14FFA8CFC4FEAEC71A5
:102C3000002907DA0A460021DCF1000C61EB0201F1
:102C40002D2202E0220504D52B228DF8042001223A
:102C500003E0E20701D02022F7E7904659E00A217D
:102C600002E010220DE010214FF0000A00910BE06D
:102C700010224FF0000A44F004040827009203E0F9
:102C800008224FF0000A0092C4F30252022A05D033
:102C900059F804CB0021032A08D009E009F1070103
:102CA00021F00702F2E802C1914605E01FFA8CFC10
:102CB000042A01D10CF0FF0C4FF00008220728D5A0
:102CC000702806D0009B83F0100353EA0A0305D056
:102CD0000EE040228DF80420012208E05CEA0102A7
:102CE00006D030228DF804208DF80500022290468F
:102CF000009B83F0080353EA0A030AD15CEA01024D
:102D000001D1620705D530228DF804204FF001086B
:102D10007F1E582804D034A003900EA802900DE026
:102D200036A0F9E753466046009AFDF73BFC84461F
:102D30000398825C0298401E029002705CEA0100D7
:102D4000F0D1029806A9081A00F1200A600702D5FE
:102D500024F4803400E00127574502DDA7EB0A0088
:102D600000E0002000EB0A01009005984144401A61
:102D70000590E00306D45B462146179A059800F0BB
:102D8000B3F90544002706E001A85A46C05D17992B
:102D900090476D1C7F1C4745F6DBE0030CD55B4676
:102DA0002146179A059800F09FF9054404E0302069
:102DB0005A46179990476D1C0099481E00900029AB
:102DC000F5DC08E0029802995A460078491C029105
:102DD000179990476D1CBAF10001AAF1010AF1DCC4
:102DE00065E10000092801003031323334353637CF
:102DF0003839616263646566000000003031323347
:102E000034353637383941424344454600000000E6
:102E100000F058F90544761C307800287FF4ECADBA
:102E200019B02846BDE8F08F620700D4062709F1E3
:102E3000070222F0070CFCE80223E14603F00048F9
:102E40005FEA080C02D00FF2702C0DE05FEA045C20
:102E500002D50FF2682C07E05FEAC47C02D00FF2C3
:102E6000602C01E0AFF2700C4FF0FF3823F000430C
:102E7000CDF850C065280CD006DC452809D046287E
:102E80001DD047283DD13DE0662818D067287ED167
:102E900038E00021112F01DB112000E0781CCDE982
:102EA000000106A90EA8FFF7DDFCDDE90F010E9A6F
:102EB00003910021009207F1010A04914DE04FF0C7
:102EC00000400097CDE9011006A90EA8FFF7CAFC43
:102ED000DDE90F0203920E9B11990022DDF80CA090
:102EE0000093049211B9791C00EB010AB7EB0A00B8
:102EF00004D4C0F1FF3007F1010A0490AAEB0700E7
:102F0000019044E0012F00DA01270021112F01DD9B
:102F1000112000E03846CDE9000106A90EA8FFF710
:102F2000A1FCDDE90F010E9A0391002104910092AA
:102F3000BA4621070CD40399514500DA8A46BAF102
:102F4000010F05DD009AAAF10101515C302908D07A
:102F5000B84202DA10F1040F06DA0121CDE90110BE
:102F600015E0AAF10101E9E7002805DC0499014414
:102F70000491AAEB000102E0411C514500DD8A46A4
:102F80000499401A401C01904FF000400290200725
:102F900004D40198504501DBCDF8048000208DF861
:102FA0004F0002980DF14F07B0F1004F25D02B20B4
:102FB0000E9002984FF0020800280CDA404202906E
:102FC0002D200E9007E00A210298FDF7D5FA303146
:102FD000029007F8011DB8F10001A8F10108F2DC28
:102FE00002980028EFD1791E0E980870307800F012
:102FF000200040F0450007F8020D12A8C01B00F1A8
:1030000007081498007800B1012000EB0A0101982C
:1030100001EBE07105984144401A401E0590E00321
:1030200006D45B462146179A059800F05DF80544E2
:103030001498007818B15A46179990476D1CE00310
:1030400024D55B462146179A059800F04DF80544B3
:103050001CE00498002807DBDDE90301884203DD5A
:103060000098405C179901E0179930205A46904724
:10307000049805F10105401C04900198401E019040
:1030800004D12E205A46179990476D1CBAF10001C1
:10309000AAF1010ADDDC05E017F8010B5A46179981
:1030A00090476D1CB8F10001A8F10108F4DC5B4603
:1030B0002146179A0598ABE62D0000002B00000072
:1030C000200000002DE9F041044600251E46174669
:1030D000880404D405E039462020B0476D1C641EE6
:1030E000F9D52846BDE8F0812DE9F04104460025D8
:1030F0001E469046C80301D5302700E020278804EB
:1031000004D505E041463846B0476D1C641EF9D52C
:103110002846BDE8F081000013B54FF6FF73012289
:1031200069460348FEF7C6FB009802B010BD0000D8
:103130007C000020FDF770FDFFF766F8FEF78CFCC1
:10314000FDF742FBFEF798FDFDF760FBFDF714FB72
:10315000FEF76AFDFEF7D0FCFEF742FDFEF71CFD10
:1031600001222D492D48FEF737FB01222C492D481D
:10317000FEF732FB01222C492C48FEF72DFBFDF710
:103180003DFD2B4C2B4FDFF8B080DFF8B0902C4D7D
:103190000026206801281CD1266008213846FDF74A
:1031A0001FFD68B9012291022846FDF720FD25A0E8
:1031B000FFF738FB08213846FDF712FD0028F1D053
:1031C00000224FF480612846FDF711FD24A0FFF78F
:1031D00029FBD8F800000128DBD1C8F800601021D5
:1031E0004846FDF7FDFC68B9012291022846FDF72B
:1031F000FEFC22A0FFF716FB10214846FDF7F0FC6D
:103200000028F1D000224FF480612846FDF7EFFC42
:1032100022A0FFF707FBBCE70D000020BC00002048
:103220000E000020FC0000200F0000203C010020C8
:103230001C0000200004024020000020000002408A
:10324000002002403D3D3E2042756D706572204475
:103250006574656374656421203C3D3D0A0000008F
:103260002A2A2A2042756D7065722052656C65614C
:1032700073656421202A2A2A0A0000003D3D3E2071
:10328000556C747261736F6E696320446574656315
:1032900074656421203C3D3D0A0000002A2A2A2052
:1032A000556C747261736F6E69632052656C6561F1
:1032B00073656421202A2A2A0A0000000000000009
:1032C00000000000010203040607080900000000D6
:1032D00001020304F4320008000000207C0000001A
:1032E00044280008703300087C000020D41100003E
:1032F00054280008000000000024F4000000000032
:1033000000000000000000009C0100200000000000
:1033100000000000000000000000000000000000AD
:10332000030000000000000000000000000000009A
:10333000000000000000000000000000000000008D
:10334000000000000000000000000000000000007D
:10335000000000000000000000000000000000006D
:10336000000000000000000000000000000000005D
:040000050800018965
:00000001FF
